{
  "contractName": "DStorage",
  "abi": [
    {
      "inputs": [],
      "payable": false,
      "stateMutability": "nonpayable",
      "type": "constructor"
    },
    {
      "constant": true,
      "inputs": [],
      "name": "name",
      "outputs": [
        {
          "internalType": "string",
          "name": "",
          "type": "string"
        }
      ],
      "payable": false,
      "stateMutability": "view",
      "type": "function"
    }
  ],
  "bytecode": "0x60806040526040518060400160405280600881526020017f4453746f726167650000000000000000000000000000000000000000000000008152506000908051906020019061004f929190610062565b5034801561005c57600080fd5b50610107565b828054600181600116156101000203166002900490600052602060002090601f016020900481019282601f106100a357805160ff19168380011785556100d1565b828001600101855582156100d1579182015b828111156100d05782518255916020019190600101906100b5565b5b5090506100de91906100e2565b5090565b61010491905b808211156101005760008160009055506001016100e8565b5090565b90565b610186806101166000396000f3fe608060405234801561001057600080fd5b506004361061002b5760003560e01c806306fdde0314610030575b600080fd5b6100386100b3565b6040518080602001828103825283818151815260200191508051906020019080838360005b8381101561007857808201518184015260208101905061005d565b50505050905090810190601f1680156100a55780820380516001836020036101000a031916815260200191505b509250505060405180910390f35b60008054600181600116156101000203166002900480601f0160208091040260200160405190810160405280929190818152602001828054600181600116156101000203166002900480156101495780601f1061011e57610100808354040283529160200191610149565b820191906000526020600020905b81548152906001019060200180831161012c57829003601f168201915b50505050508156fea265627a7a7231582085a4461388d66c708ea3edbf259d01507db30e895da455aa98692c51d502b3ce64736f6c63430005100032",
  "source": "pragma solidity ^0.5.0;\r\n\r\ncontract DStorage {\r\n  // Name\r\n  string public name = 'DStorage';\r\n  // Number of files\r\n  // Mapping fileId=>Struct \r\n\r\n  // Struct\r\n\r\n\r\n  // Event\r\n\r\n  constructor() public {\r\n  }\r\n\r\n  // Upload File function\r\n\r\n    // Make sure the file hash exists\r\n\r\n    // Make sure file type exists\r\n\r\n    // Make sure file description exists\r\n\r\n    // Make sure file fileName exists\r\n\r\n    // Make sure uploader address exists\r\n\r\n    // Make sure file size is more than 0\r\n\r\n\r\n    // Increment file id\r\n\r\n    // Add File to the contract\r\n\r\n    // Trigger an event\r\n\r\n}",
  "sourcePath": "C:/dropbox-blockchain-clone/dstorage/src/contracts/DStorage.sol",
  "compiler": {
    "name": "solc",
    "version": "0.5.16+commit.9c3226ce.Emscripten.clang"
  },
  "schemaVersion": "3.4.1",
  "updatedAt": "2021-05-20T15:05:41.149Z",
  "networkType": "ethereum",
  "devdoc": {
    "methods": {}
  },
  "userdoc": {
    "methods": {}
  }
}